:100000006F101010000000004401000048010000C3
:1000100000000000000000000000000000000000E0
:1000200000000000000000000000000000000000D0
:100030002202000000000000FE1800000000000086
:10004000FE180000FE180000FE180000FE18000058
:10005000FE180000FE180000FE180000FE18000048
:10006000FE180000FE180000FE180000FE18000038
:10007000FE180000FE180000FE180000FE18000028
:10008000FE180000FE180000FE180000FE18000018
:10009000FE180000FE180000FE180000000000001E
:1000A0002A86014593F6150091C232958581060690
:1000B000F5F9828000000000634E050263C3050469
:1000C0002E86AA857D5515C285466378B60063568F
:1000D000C00006068606E36CB6FE014563E4C50073
:1000E000918D558D85820582F5FA82808682C93F81
:1000F0002E8582823305A04063D70500B305B0404A
:10010000C1B7B305B0408682653F3305A040828207
:10011000868263C70500634905005D372E858282AC
:10012000B305B040E35B05FE3305A040513F330506
:10013000B04082820000511106C4EF003065EF002C
:10014000506CF5BF7300203001A0211185451305C7
:10015000400306CA22C8EF10E02B0A85EF10401CAE
:10016000A1472310F100C1473EC48A858D4737154A
:1001700001403EC2EF100013A14537150140EF10BA
:10018000C01B9D478A85371501402310F100EF10F1
:1001900060119D4537150140EF10601A371401407A
:1001A00089472310F1008A85930780041305048092
:1001B0003EC4EF10200F91478A8513050480231059
:1001C000F100EF10200E01458145BD200545C128F5
:1001D000D240424461018280511122C206C4B7E775
:1001E00000E0056737F400E023A0E71023220400B5
:1001F000B707002003A5C7029305803ED1357D15C2
:1002000008C823240400BD471CC0A2401244310189
:10021000828003A58180828083A781803385A74067
:100220008280938781809843050798C3B7F700E0E1
:1002300023A2070073002030311122C606C82AC04D
:100240002EC213047002024592452286EF10C0753B
:100250000589854521C137150140EF10000E8945FC
:1002600037150140EF10600D894537150140EF103B
:10027000000D7D14FD57E318F4FC9145371501403E
:10028000EF10A00B3244C240914537150140510197
:100290006F10E00A37150140EF10600AC9B7A14599
:1002A00009C5371501406F108009371501406F10DF
:1002B000C00823AC0180238A01808280211106CAF4
:1002C00022C826C62AC0B1372AC23715014089453F
:1002D00013050580EF10C005138481811C4005467D
:1002E0009384418192466381C70291CB0946638919
:1002F000C7088D46638AD70823200400A9A021E5FA
:1003000010C023A6D18081A065F903A5C18036C4A1
:100310003EC2193739469247A2466376A60209467D
:1003200010C023A8D18003C604008D4663EDC6002B
:100330009315360093864185AE9605069CC223A28E
:1003400006002380C400824799C323A0070083C608
:10035000040001458DC21386418508424C429387B3
:1003600041850546A1076391C6068247FD16238095
:10037000D40091C38CC3D2404244B2446101828014
:1003800079D18D471CC0B5BF19E110C06DBF03A561
:10039000C1803EC25135B946E3F7A6FA03A50181F3
:1003A00023200400953D83C604009247E3EDD7F86F
:1003B0009395360093874185AE970946850690C38D
:1003C000C8C32380D40041B703A3070005061376F2
:1003D000F60F23AC67FE03A3470023AE67FE59B7B1
:1003E00037150140511191451305058006C423A41A
:1003F0000182EF00F073133515002382A182113DB5
:10040000A24023AEA180A3820182310182804111EA
:1004100006C626C222C4F53BAA8437150140914581
:1004200013050580EF00D0709386418283C50600D6
:10043000133615002A879387C1816385C500238001
:10044000C60084C388433AC0C13BB94763F0A704E0
:1004500002479386518283C706001DE39DEB054743
:100460002380E60005471384818214400546638B90
:10047000C60295C20947638BE6042320040029A81D
:100480000147F5D3238006008547F1BF8147014727
:10049000D9BF8147C9BF19E3014509A810C023A0EE
:1004A0009182DDBF89CB232004000545B240224460
:1004B00092444101828003A50182B93B9307703EBB
:1004C000E3FCA7FC89471CC00945CDB7F1D775B738
:1004D000797185451305002106D622D426D2EF0076
:1004E00070733165EF001067C1478A853715014089
:1004F000372401402310F10002C4EF00B05A130565
:100500000440EF10C007B7070E003ECC6C008547D3
:10051000130504402300F10202C602C802CA02CE3B
:10052000EF1040089D460546894513050440EF102D
:100530002011B705000213050440EF10A01D8545EA
:1005400013050440EF10000B13050440EF10800B5F
:10055000930404402685EF10800B6DFD13050440C5
:1005600037240140EF10200B130404402285EF10C4
:10057000200B6DFDB25022541307400B2396E182ED
:1005800023A8018292544561828093870183984316
:100590003307E5406345070A311122C626C406C861
:1005A0001305450688C3E1679387076A91440144B0
:1005B0003EC0824789453EC2B727014013850740A8
:1005C000EF10C014B7270140854513850740EF1091
:1005D000A005372701409306074036858945EF106F
:1005E0004012B72701409386074021C53685EF109A
:1005F000C010FD1493F4F40F2A94C5FC0980239ACB
:1006000081824204418013154400018D9305F03F1F
:1006100012057D341305C5031307C0126374A700C8
:100620001305C012C24032442396A182A244510154
:1006300082809247FD173EC2CDF301455DBF8280A7
:1006400003D5C182828005651301C1FB8545130571
:10065000058286C022DEEF00F05B85472316F1009D
:1006600037150140E1473ECA6C008D471305054030
:100670003EC8EF003043B707002003A5C702B745C7
:100680000F00938505242D3C1304F5FF0A85EF1018
:10069000201B23108100373401409307301F8A85C7
:1006A000130504C03EC22311010023040100EF1012
:1006B000A0072810EF10401A930700063ED4914778
:1006C0003ED62C10B7070800130504C03ED802DA46
:1006D000EF10C00BA145130504C0EF10E02028085F
:1006E000EF10A019B70700203ED02C089167130522
:1006F00004C02312F10202CC02CEEF1080111305C8
:1007000004C08545EF10001B130504C08545EF109C
:10071000C01B130504C08545EF1000181307401FC8
:1007200086407254239BE1825147A38CE1821301DE
:10073000410482800547238CE18283C5918303D5E0
:100740006183511106C4EFF0BF9593054006EFF0A9
:100750003F97A2409315050137350140C18113052C
:1007600005C031016F10601937350140814513050F
:1007700005C0238C01826F104018130740069307B1
:1007800040066363A700AA8793F5F70FA38CF18255
:1007900083C7818395C703D56183511106C4EFF0E8
:1007A0003F9093054006EFF0BF91A24093150501DD
:1007B00037350140C181130505C031016F10E013C9
:1007C000828003C5918382801165130181FD854577
:1007D0001305050206D222D0EF00D0439307000292
:1007E0002310F10037140140E1473EC48A858D474C
:1007F000130504403EC2EF00F02A930700042310C3
:10080000F1008A859147130504403EC4EF0090290A
:10081000F16737440140938707203EC66C00B70755
:100820000C00130504803ECA02C8231C0100EF001F
:100830003042130504808545EF00B05092500254B9
:10084000130181028280511122C23744014026C027
:1008500006C4AA84930704803E8593050008EF0030
:100860005051B7470140938707807DD51305048019
:100870001244A24093F5F40F824431016F00304ED0
:10088000111126C806CC22CAAA8481473E8491E869
:100890007D14FD57631BF402E2405244C2447101CF
:1008A00082805800A94526853304F7003EC0EFF04A
:1008B000FF83130505032300A400A9452685EFF057
:1008C0003F808247AA848507D1B75C00A297038541
:1008D0000700953F75BF511122C206C42A84030543
:1008E000040009E5A2401244310182800504A13FC1
:1008F000FDB7130141FD3ED43C0826C606CA22C8F6
:10090000AA842ECC32CE36D03AD23EC00385040023
:1009100019E5D2404244B2441301C10282809307D8
:100920005002138414006307F500313F26849304BA
:100930001400E9BF83871400130740066383E704AC
:10094000634EF7006384A70C130730066389E70A38
:1009500013055002CD3D03851400A1A013075007D5
:100960006383E704130780076387E70413073007EF
:10097000E390E7FE82478843138747003AC0A13FD0
:100980007DB782478443138747003AC063D704008A
:100990001305D0024D3DB3049040268599E8130518
:1009A0000003553569B782478843138747003AC02B
:1009B0007DD5F935ADBF82478966138506A01387BB
:1009C00047003AC07D5698439D475400B385F600D2
:1009D0009376F700AA9683C60600FD17118323803D
:1009E000D500E394C7FE81445C003387970003057C
:1009F00007008504893D2147E398E4FE0DBF824747
:100A0000138747003AC00385070061BF13055002F2
:100A100049BF511122C206C426C0B7440140930504
:100A2000000213850480EF00D03485476307F5008A
:100A3000A240124482443101828013850480EF0079
:100A4000B03262056185B5476305F500A9476312B9
:100A5000F5021387A18383460700E1D2938741877C
:100A6000B697238007008546A38DD1822300070017
:100A70006DB7A1476306F5009307F007631BF50008
:100A80001387A18383470700C9DBFD172300F70005
:100A900069B783C7B183D1F39387A18303C70700E5
:100AA000B946E3ECE6F6930617002380D700938758
:100AB0004187BA972380A7008DB71387B1838347F7
:100AC000070085CB814795C523000700FD1593F5E9
:100AD000F50F1387418713F6F70FB306F500637719
:100AE000B6003306F7000306060011E62380060071
:100AF00085473E8582802380C6008507E9BF9386AF
:100B0000C18303C706008D4763EFE7001313370067
:100B1000938741899A97050788C32382B700A382E8
:100B2000C7002380E60082809387418823A00700C6
:100B300005472380E7003707B4001307470B23A4BA
:100B4000070023A60700D8C3238E01828280239545
:100B5000A188828005472383E1888280411122C4D5
:100B600026C29387418806C683C71700AA841384C8
:100B7000418899E783576400231604002312F40088
:100B8000035744008547A300F4001315270083474B
:100B900004003A950CC423010400A9450A053EC08F
:100BA000EFF00FD28247B3B5A40093C5150013959B
:100BB0001700AA951307F0036372B702BE851145AB
:100BC0001306F0032D3F85472310F400231604007D
:100BD0001145B240224492444101828093F5F50FC1
:100BE0002E852300B4002EC03D2282452A8605456D
:100BF00039370545F9BF511122C226C006C4938476
:100C0000418883C71400ADC31384418883472400FF
:100C1000A9E30444A945B304954003554400931740
:100C20001500AA978E073E95EFF08FC963E3A402E3
:100C300003450400CD209307F0032A868345040072
:100C4000631EF5001306F0030D45553D854723103F
:100C5000F400A240124482443101828009454535A6
:100C600085472306F400DDB783C7C400FDD383C7DF
:100C7000D40003C72400D98FE9FF83D74400804400
:100C8000A94533048540139547001D8D0A05EFF0F3
:100C90002FC3E360A4FC1306000285451545853586
:100CA0008547A386F40075B793874188054723904D
:100CB000E7002381070023960700238E01828280AC
:100CC00003C7C183611101EB02C023120100024579
:100CD0009245210182801386C1839386418988428F
:100CE00083D54600938741898546A1076319D700BC
:100CF0007D172300E6002AC02312B100C9BF03A359
:100D00000700850693F6F60F23AC67FE03A34700A2
:100D100023AE67FED9BF9307F00363E9A700896795
:100D2000938747A1AA970385070082801305F003E4
:100D300082809307F00363E9A7008967938747A53B
:100D4000AA970385070082807D55828003A70185CD
:100D5000411106C622C426C239E3E13F2A86634414
:100D6000050405458145EF00F046AA842E84A2853E
:100D7000B240224426859244410182803E853EC095
:100D80004D3F2A8682476349050005458145EF00AE
:100D900070448247C98C4D8C8583EDF3C9BFAA8707
:100DA00081440144DDBF81440144D1B7511123A0E6
:100DB00001840547B7070020054506C42384E702E0
:100DC0007137A24031016FF02FC723A80184054776
:100DD000B707002051112384E702054506C423A06C
:100DE0000184AD37A24031016FF00FC523A8A18463
:100DF00083A7018481EFB707002003C58702511143
:100E000006C4A937A24031016FF00FC3828003A549
:100E10000185828003A5018513351500C1BF5111DD
:100E200023A00184B707002006C42384A702393F0A
:100E3000A24031016FF04FC02382A1847D57511130
:100E400023A6B18423A4E18406C4E535054723A085
:100E5000E1842A86634A050005458145EF00903705
:100E6000A24031016FF04FBD01458145D5BF0D470F
:100E700023A0E18423A6A1847D5723A4E18482805A
:100E800023A00184828083A70184411122C406C665
:100E900009472A846383E7020D476387E70605470E
:100EA000639EE70803A5C1849307B05D098C63F7CF
:100EB00087082244B2404101D5BD03C54184953D18
:100EC0002AC003A5C184930730383305A440E3E268
:100ED000A7FE93056009EFF0AF9E93878184984346
:100EE000630EA70488C3937715008145014581EB04
:100EF00002466346060005458145EF00B02D2244B9
:100F0000B24041016FF04FB303A5C1849307F02CA9
:100F10003305A440E3EFA7F893058007EFF04F9A5D
:100F2000938781849843630BA70088C39377150048
:100F3000FD457D55E9D701458145D1B7B2402244F1
:100F400041018280511106C485476304F50219C529
:100F500089476305F502A2403101828037250000F0
:100F6000130545A9EFF0FF98EFF0AFAAA2403101B9
:100F7000FDBD372500001305C5ABEDB7A2403725F1
:100F80000000130585AD31016FF0BF96411106C613
:100F900022C4EFF06FA4EFF04F9BEFF0FF82EFF071
:100FA0004FB1EFF0EFC3EFF0AFD2EFF0CFE9EFF0DA
:100FB000AFFBEFF07FB7113D37250000130545B1BA
:100FC000EFF07F91EFF0CFE72A84913585476305F5
:100FD000F502372600001306C6B032C0EFF06FFEF0
:100FE000A28522440246B240AA8637250000130596
:100FF000C5B241016FF0FF8F37260000130646B0DF
:10100000E9BF011106CE22CC26CAEFF08FA0EFF087
:10101000CFD7EFF0EFE2EFF09FB3EFF08F9F2A848E
:10102000480002C2EFF08FA985476317F506EFF07D
:101030006FF02285EFF01FB2372500001305C5B50C
:10104000EFF03F8BEFF0AFBC0544631D8506A93977
:10105000053D0545E93337250000130505B8EFF0D8
:101060005F89EFF01F9BC1454800EFF01FA551E1DC
:10107000EFF02F9AEFF03FB8896499312AC22EC45D
:1010800013F4F50F63190510EFF0AF98ED3BF24044
:101090006244D244056182808947E315F5FAEFF096
:1010A000AFEC92452EC0EFF0AFD982452A863725A6
:1010B0000000130585B6EFF0DF831245A285EFF03F
:1010C000FFA949B78947E31EF5F8A9338933630DB2
:1010D0008500B72500009385C5B0372500001305AE
:1010E00085B9EFF01F81B5BFB7250000938545B0E6
:1010F000EDB7830741001307600593F6F7FD639E84
:10110000E606830751001307F003639CE700EFF046
:101110004FEBAA8537250000130585BAEFF06FFD68
:1011200081BFA9C781451307510025461305400615
:101130008307070089EB93F5F50F2E852EC0EFF09E
:10114000CFE38245C1BF938607FD93F6F60F636F29
:10115000D60093962500B6958605938505FDBE9528
:10116000C205C1816364B5000507D9B73725000002
:10117000130545BBEFF02FF6E5BD1307F0036397AA
:10118000E700372500001305C5BCEDB73725000083
:10119000130545BFC5B77D159147E3E0A7EE9387DB
:1011A00004AF0A053E951C418287D93922858539CD
:1011B00037250000A285130505C2EFF08FF375BD3A
:1011C000830591002E852EC0EFF0EFE73725000054
:1011D000130505BBEFF02FF082453725000022866E
:1011E000130585BFEFF0EFF0EFF0AF82AA852285FF
:1011F000A13161B537250000130505C1A285EFF0C7
:101200004FEF0545813395BD0145EDBF1305000244
:10121000EFF06FE39DB5511122C2371402401C401C
:1012200006C43707FFF893E717001CC05C40414530
:10123000F98F5CC01C403707F7FE7D17F98F1CC083
:101240001C403707FCFF7D17F98F1CC05C404177BD
:101250007D17F98F5CC0B7079F001CC4DD201C4CB4
:10126000A24093E707021CCCB717014003A7074031
:10127000938607401377F7F023A0E74003A70740C2
:101280001367070823A0E74089479CCAB727024095
:101290009843719B98C3984398C35C405CC01244C8
:1012A00031018280944593F7060193F2F60081C7DD
:1012B000DC41B3E2F20083D3050093F7F30FA5C33B
:1012C00003230500611122C226C081471304800256
:1012D0009304800405473316F70033F7C300631205
:1012E000E602939527003D473317B7001347F7FFF2
:1012F00033736700B395B20033E36500639D8600E6
:1013000050C985072147E397E7FC12442320650075
:10131000824421018280E39696FE10C9DDB7828067
:10132000FD572310F50089475CC191471CC5828099
:1013300008456D8D3335A00082800CC982804CC970
:101340008280371702401C430E0593F777F05D8DBE
:1013500008C38280B7160240DC4241771307F77F4B
:10136000F98F5D8DC8C28280371702405C435111EE
:1013700022C206C4B18B91462A846385D700A14658
:101380006384D708B7376E01938707601CC0B71610
:101390000240DC42918313F7F700B70700209387E0
:1013A0004701BA9783C50700DC42184093F5F50F53
:1013B00093F707083355B70081E73A85EFE05FD030
:1013C00048C008C448C4B7170240DC438D46AD830B
:1013D000FD8B13D737008A07F18BD98F13F63701AE
:1013E00013F7370063F4C600138747FFB7070020E1
:1013F00093870700BA9783C50700EFE07FCC08C842
:10140000A2401244310182805C43B777DC029387AB
:1014100007C0ADBF99C5371702401C4F5D8D08CF7F
:101420008280B7170240984F1345F5FF798D88CF1A
:10143000828099C5371702405C475D8D48C782801E
:10144000B7170240D8471345F5FF798DC8C782808A
:1014500083560501F577FD17F58F83D665001301D7
:10146000C1FD22CE06D026CCD58F03D7C5002318C8
:10147000F5008356C500FD779387379FF58F83D698
:1014800045002A842EC0D58F83D68500D58F83D67C
:10149000A500D58F2316F50083574501C207C183E8
:1014A00093F7F7CF5D8F231AE5004800753DB747E6
:1014B00001409387078082456318F406C2470357AB
:1014C000C400139517003E9542070E0541873E95CF
:1014D0008C41635D07048605EFE09FBE93054006DF
:1014E0002AC0EFE0FFBD82479314450093054006F4
:1014F0003E85EFE0BFBF8357C400C207C18763D9F1
:1015000007020E059305400613052503EFE05FBBB8
:101510001D89C98CC204C180231494008250724476
:10152000E244130141028280B24751BF8A056DB780
:1015300012059305400613052503EFE07FB83D89AA
:10154000C9BF81C98357C5000967D98F2316F50024
:1015500082800357C500F977FD17F98FC5BF93F552
:10156000F51F2312B5008280035545001375F51F42
:101570008280035505006D8D3335A0008280B7272A
:10158000014093870740631EF500511185451305FF
:10159000002006C4793DA240814513050020310199
:1015A00049BD82805C413707F1FF1307F7EF7D8F5C
:1015B000DC419441A207D58FD98F5CC11C4537F718
:1015C000F1FF1307D77FD4457D8F9C49D58F944574
:1015D0008606D58FD98F1CC55C55370710FF7D1740
:1015E0007D8F83C74501FD1793F7F70FD207D98F7A
:1015F0005CD582801C4589C593E717001CC5828095
:10160000F99BEDBF1C4593E787001CC58280084508
:101610000D81058982801C4593E747001CC58280A7
:1016200008450981058982801C4591C5370750000E
:10163000D98F1CC582803707B0FF7D17F98FD5BFC2
:10164000A54763F8B704138765FF93171700832234
:10165000C500BA971D433313F3001343F3FF3373ED
:101660005300B397F600B3E767005CC5994763E39F
:10167000C7047D16931726003E965859FD47B39729
:10168000C70093C7F7FFF98FB395C500DD8D4CD91F
:1016900082809397150003230501AE971D473317EA
:1016A000F7001347F7FF33776700B397F6005D8FB6
:1016B00018C96DBFB14763E2C702651693172600CC
:1016C0003E961859FD47B397C70093C7F7FFF98FA8
:1016D000B395C500DD8D0CD982804D1613172600F9
:1016E00054553A96FD47B397C70093C7F7FFF58F58
:1016F000B395C500DD8D4CD582806845420541819A
:10170000828008416D8D3335A000828093C5F5FF3E
:101710000CC182805C41370700FA7D17F98F5CC1EC
:101720005C41DD8D4CC18280835705003737014015
:10173000130707C0C207C1836306E50037070040EF
:101740006317E50003D7250093F7F7F8D98F03D780
:10175000650093F7F7CFC207C183D98F2310F50037
:1017600083D745002316F50283D705002314F5021D
:10177000B7370140938707C06316F50083C785001C
:101780002318F5028547231AF50082808357050246
:1017900003D6050003D32500C207C183F99BC20706
:1017A000C1832310F5028357050283564500035772
:1017B0008501C207C183420741831377C7F8518F60
:1017C00003D68500F59BC20633666600D18F373697
:1017D0000140130606C0C1826313C50203D6A500EB
:1017E000DD9B03D3E500D18F03D64500ED9B93F637
:1017F000F6CFD18F03D6C50033666600D18E231293
:10180000D500231CE50003D7650058D92310F50245
:10181000828003D7250083D70500D98F03D74500E1
:10182000D98F03D76500D98F03D78500D98F03D708
:10183000A500D98F03D7C500D98F2312F504828064
:10184000FD572312F5002310050023130500231173
:1018500005002304050082802310050023110500E4
:10186000231205002313050023140500231505008A
:10187000231605002317050082802310050023117D
:10188000050023120500231305002314050023156A
:1018900005002316050082808357050091C593E754
:1018A00017002310F5008280C207C183F99BC2078D
:1018B000C183C5BF8357450491C52167D98F2312C2
:1018C000F5048280C607C583DDBF8357050091C537
:1018D00093E707082310F5008280C207C18393F7BE
:1018E000F7F7C207C183FDB783578501C207C183DC
:1018F000DD9BDD8D231CB50082804CD9828001A048
:1019000097F1FF1F938181F2138181FD1305000A76
:1019100097E5FF1F9385056F17E6FF1F1306866E79
:1019200063FAC5008322050023A055001105910527
:10193000E3EAC5FE170500001305852F97E5FF1F95
:101940009385456C1386818063FAC5008322050068
:1019500023A0550011059105E3EAC5FE138581809A
:101960009385418B6377B500232005001105E36D56
:10197000B5FEB722000093820288739002308D4238
:101980007390428097E2FFFF9382C26793E2320036
:1019900073905230EFF03F8897E2FFFF9382E27935
:1019A000739012347300203011CE93070002918F90
:1019B000635BF0003355C500B397F50033D6C5001F
:1019C0005D8DB2858280130506FE014633D5A500E4
:1019D000B285CDBF11CE93070002918F635BF000FB
:1019E000B395C500B357F5003316C500DD8D3285BC
:1019F0008280930506FE0146B315B5003285CDBF42
:101A00003031323334353637383941424344454634
:101A1000000000002020455449414E4D5355525777
:101A2000444B474F4856463F4C3F504A4258435913
:101A30005A513F3F35343F333F3F3F323F3F3F3FB7
:101A40003F3F3F31363F3F3F3F3F3F3F373F3F3FC5
:101A5000383F3930FF000102030405060708090A70
:101A60000B0C0D0E0F1011FF12FF13141516171883
:101A7000191AFFFF1B1CFF1DFFFFFF1EFFFFFFFFCB
:101A8000FFFFFF1F20FFFFFFFFFFFFFF21FFFFFF03
:101A900022FF23244552523A206E6F6465206F76F0
:101AA0006572666C6F772028726573657420746F39
:101AB00020726F6F74290D0A000000004552523ADF
:101AC00020696E76616C6964206D6F727365206346
:101AD0006F64650D0A0000005741524E3A20616460
:101AE000632061626E6F726D616C0D0A0000000010
:101AF000AA110000C0110000F4110000081200003B
:101B00000C120000504154480000000053494E4759
:101B10004C4500000D0A4D6F727365204348333207
:101B20005630303320626F6F740D0A00543D2575B6
:101B3000206D73206D6F64653D257320766F6C7525
:101B40006D653D25752525202873657269616C3AA0
:101B500020563C6E3E290D0A000000004B455920DE
:101B6000444F574E0D0A00004B45592055502064F4
:101B700075723D2575206D7320543D25750D0A0045
:101B8000434C4541523A206261636B20746F20726E
:101B90006F6F740D0A0000004D4F4445202D3E200C
:101BA00025730D0A00000000564F4C3D2575252574
:101BB0000D0A000075736167653A20563C302D317F
:101BC00030303E207C20563F0D0A0000636F6D6D63
:101BD000616E64733A20563C302D3130303E2076B1
:101BE0006F6C756D652C20563F2071756572790D8F
:101BF0000A0000003F0D0A004C4F434B202725638D
:101C00002720286E6F64653D2575290D0A000000A8
:101C1000696E76616C696420636F6465206174200D
:0C1C20006E6F64653D25750D0A00000024
:101C2C000204060804080C1008101820102030407C
:101C3C00204060800102030405060708010203042A
:101C4C0005060708000000000100000000366E01C8
:00000001FF
